{
    "_format": "hh-sol-artifact-1",
    "contractName": "ToDo",
    "sourceName": "contracts/ToDo.sol",
    "abi": [
        {
            "inputs": [],
            "stateMutability": "nonpayable",
            "type": "constructor"
        },
        {
            "inputs": [],
            "name": "currentUser",
            "outputs": [
                {
                    "internalType": "address",
                    "name": "",
                    "type": "address"
                }
            ],
            "stateMutability": "view",
            "type": "function"
        },
        {
            "inputs": [
                {
                    "internalType": "uint256",
                    "name": "index",
                    "type": "uint256"
                }
            ],
            "name": "deleteTodoItem",
            "outputs": [],
            "stateMutability": "nonpayable",
            "type": "function"
        },
        {
            "inputs": [
                {
                    "internalType": "uint256",
                    "name": "_taskId",
                    "type": "uint256"
                },
                {
                    "internalType": "string",
                    "name": "_updatedTask",
                    "type": "string"
                }
            ],
            "name": "editTask",
            "outputs": [],
            "stateMutability": "nonpayable",
            "type": "function"
        },
        {
            "inputs": [],
            "name": "getTask",
            "outputs": [
                {
                    "components": [
                        {
                            "internalType": "string",
                            "name": "task",
                            "type": "string"
                        },
                        {
                            "internalType": "bool",
                            "name": "isCompleted",
                            "type": "bool"
                        }
                    ],
                    "internalType": "struct ToDo.Task[]",
                    "name": "",
                    "type": "tuple[]"
                }
            ],
            "stateMutability": "view",
            "type": "function"
        },
        {
            "inputs": [
                {
                    "internalType": "string",
                    "name": "_task",
                    "type": "string"
                }
            ],
            "name": "setTask",
            "outputs": [],
            "stateMutability": "nonpayable",
            "type": "function"
        },
        {
            "inputs": [
                {
                    "internalType": "uint256",
                    "name": "_taskId",
                    "type": "uint256"
                },
                {
                    "internalType": "bool",
                    "name": "_status",
                    "type": "bool"
                }
            ],
            "name": "updateTask",
            "outputs": [],
            "stateMutability": "nonpayable",
            "type": "function"
        }
    ],
    "bytecode": "0x608060405234801561001057600080fd5b50336000806101000a81548173ffffffffffffffffffffffffffffffffffffffff021916908373ffffffffffffffffffffffffffffffffffffffff160217905550611259806100606000396000f3fe608060405234801561001057600080fd5b50600436106100625760003560e01c806312f616a2146100675780635e1bf4a11461008357806369306b3a1461009f57806392ee0334146100bb578063a31662d2146100d9578063cb7bd995146100f7575b600080fd5b610081600480360381019061007c9190610c5c565b610113565b005b61009d60048036038101906100989190610c85565b61047f565b005b6100b960048036038101906100b49190610c1b565b610544565b005b6100c3610627565b6040516100d09190610e55565b60405180910390f35b6100e161064b565b6040516100ee9190610e70565b60405180910390f35b610111600480360381019061010c9190610cc1565b6107b5565b005b600160008060009054906101000a900473ffffffffffffffffffffffffffffffffffffffff1673ffffffffffffffffffffffffffffffffffffffff1673ffffffffffffffffffffffffffffffffffffffff1681526020019081526020016000208054905081106101b8576040517f08c379a00000000000000000000000000000000000000000000000000000000081526004016101af90610e92565b60405180910390fd5b6000600160008060009054906101000a900473ffffffffffffffffffffffffffffffffffffffff1673ffffffffffffffffffffffffffffffffffffffff1673ffffffffffffffffffffffffffffffffffffffff168152602001908152602001600020905060008290505b600182805490506102339190610fc4565b81101561039657600160008060009054906101000a900473ffffffffffffffffffffffffffffffffffffffff1673ffffffffffffffffffffffffffffffffffffffff1673ffffffffffffffffffffffffffffffffffffffff1681526020019081526020016000206001826102a79190610f6e565b815481106102de577f4e487b7100000000000000000000000000000000000000000000000000000000600052603260045260246000fd5b9060005260206000209060020201828281548110610325577f4e487b7100000000000000000000000000000000000000000000000000000000600052603260045260246000fd5b9060005260206000209060020201600082018160000190805461034790611082565b610352929190610939565b506001820160009054906101000a900460ff168160010160006101000a81548160ff021916908315150217905550905050808061038e906110e5565b915050610222565b50808054806103ce577f4e487b7100000000000000000000000000000000000000000000000000000000600052603160045260246000fd5b6001900381819060005260206000209060020201600080820160006103f391906109c6565b6001820160006101000a81549060ff02191690555050905580600160008060009054906101000a900473ffffffffffffffffffffffffffffffffffffffff1673ffffffffffffffffffffffffffffffffffffffff1673ffffffffffffffffffffffffffffffffffffffff16815260200190815260200160002090805461047a929190610a06565b505050565b80600160008060009054906101000a900473ffffffffffffffffffffffffffffffffffffffff1673ffffffffffffffffffffffffffffffffffffffff1673ffffffffffffffffffffffffffffffffffffffff1681526020019081526020016000208381548110610518577f4e487b7100000000000000000000000000000000000000000000000000000000600052603260045260246000fd5b906000526020600020906002020160010160006101000a81548160ff0219169083151502179055505050565b600160008060009054906101000a900473ffffffffffffffffffffffffffffffffffffffff1673ffffffffffffffffffffffffffffffffffffffff1673ffffffffffffffffffffffffffffffffffffffff16815260200190815260200160002060405180604001604052808381526020016000151581525090806001815401808255809150506001900390600052602060002090600202016000909190919091506000820151816000019080519060200190610601929190610aab565b5060208201518160010160006101000a81548160ff021916908315150217905550505050565b60008054906101000a900473ffffffffffffffffffffffffffffffffffffffff1681565b6060600160008060009054906101000a900473ffffffffffffffffffffffffffffffffffffffff1673ffffffffffffffffffffffffffffffffffffffff1673ffffffffffffffffffffffffffffffffffffffff168152602001908152602001600020805480602002602001604051908101604052809291908181526020016000905b828210156107ac578382906000526020600020906002020160405180604001604052908160008201805461070090611082565b80601f016020809104026020016040519081016040528092919081815260200182805461072c90611082565b80156107795780601f1061074e57610100808354040283529160200191610779565b820191906000526020600020905b81548152906001019060200180831161075c57829003601f168201915b505050505081526020016001820160009054906101000a900460ff161515151581525050815260200190600101906106cd565b50505050905090565b80600160008060009054906101000a900473ffffffffffffffffffffffffffffffffffffffff1673ffffffffffffffffffffffffffffffffffffffff1673ffffffffffffffffffffffffffffffffffffffff168152602001908152602001600020838154811061084e577f4e487b7100000000000000000000000000000000000000000000000000000000600052603260045260246000fd5b90600052602060002090600202016000019080519060200190610872929190610aab565b506000600160008060009054906101000a900473ffffffffffffffffffffffffffffffffffffffff1673ffffffffffffffffffffffffffffffffffffffff1673ffffffffffffffffffffffffffffffffffffffff168152602001908152602001600020838154811061090d577f4e487b7100000000000000000000000000000000000000000000000000000000600052603260045260246000fd5b906000526020600020906002020160010160006101000a81548160ff0219169083151502179055505050565b82805461094590611082565b90600052602060002090601f01602090048101928261096757600085556109b5565b82601f1061097857805485556109b5565b828001600101855582156109b557600052602060002091601f016020900482015b828111156109b4578254825591600101919060010190610999565b5b5090506109c29190610b31565b5090565b5080546109d290611082565b6000825580601f106109e45750610a03565b601f016020900490600052602060002090810190610a029190610b31565b5b50565b828054828255906000526020600020906002028101928215610a9a5760005260206000209160020282015b82811115610a995782826000820181600001908054610a4f90611082565b610a5a929190610939565b506001820160009054906101000a900460ff168160010160006101000a81548160ff021916908315150217905550505091600201919060020190610a31565b5b509050610aa79190610b4e565b5090565b828054610ab790611082565b90600052602060002090601f016020900481019282610ad95760008555610b20565b82601f10610af257805160ff1916838001178555610b20565b82800160010185558215610b20579182015b82811115610b1f578251825591602001919060010190610b04565b5b509050610b2d9190610b31565b5090565b5b80821115610b4a576000816000905550600101610b32565b5090565b5b80821115610b855760008082016000610b6891906109c6565b6001820160006101000a81549060ff021916905550600201610b4f565b5090565b6000610b9c610b9784610ed7565b610eb2565b905082815260208101848484011115610bb457600080fd5b610bbf848285611040565b509392505050565b600081359050610bd6816111f5565b92915050565b600082601f830112610bed57600080fd5b8135610bfd848260208601610b89565b91505092915050565b600081359050610c158161120c565b92915050565b600060208284031215610c2d57600080fd5b600082013567ffffffffffffffff811115610c4757600080fd5b610c5384828501610bdc565b91505092915050565b600060208284031215610c6e57600080fd5b6000610c7c84828501610c06565b91505092915050565b60008060408385031215610c9857600080fd5b6000610ca685828601610c06565b9250506020610cb785828601610bc7565b9150509250929050565b60008060408385031215610cd457600080fd5b6000610ce285828601610c06565b925050602083013567ffffffffffffffff811115610cff57600080fd5b610d0b85828601610bdc565b9150509250929050565b6000610d218383610e18565b905092915050565b610d3281610ff8565b82525050565b6000610d4382610f18565b610d4d8185610f3b565b935083602082028501610d5f85610f08565b8060005b85811015610d9b5784840389528151610d7c8582610d15565b9450610d8783610f2e565b925060208a01995050600181019050610d63565b50829750879550505050505092915050565b610db68161100a565b82525050565b6000610dc782610f23565b610dd18185610f4c565b9350610de181856020860161104f565b610dea816111bb565b840191505092915050565b6000610e02601383610f5d565b9150610e0d826111cc565b602082019050919050565b60006040830160008301518482036000860152610e358282610dbc565b9150506020830151610e4a6020860182610dad565b508091505092915050565b6000602082019050610e6a6000830184610d29565b92915050565b60006020820190508181036000830152610e8a8184610d38565b905092915050565b60006020820190508181036000830152610eab81610df5565b9050919050565b6000610ebc610ecd565b9050610ec882826110b4565b919050565b6000604051905090565b600067ffffffffffffffff821115610ef257610ef161118c565b5b610efb826111bb565b9050602081019050919050565b6000819050602082019050919050565b600081519050919050565b600081519050919050565b6000602082019050919050565b600082825260208201905092915050565b600082825260208201905092915050565b600082825260208201905092915050565b6000610f7982611036565b9150610f8483611036565b9250827fffffffffffffffffffffffffffffffffffffffffffffffffffffffffffffffff03821115610fb957610fb861112e565b5b828201905092915050565b6000610fcf82611036565b9150610fda83611036565b925082821015610fed57610fec61112e565b5b828203905092915050565b600061100382611016565b9050919050565b60008115159050919050565b600073ffffffffffffffffffffffffffffffffffffffff82169050919050565b6000819050919050565b82818337600083830152505050565b60005b8381101561106d578082015181840152602081019050611052565b8381111561107c576000848401525b50505050565b6000600282049050600182168061109a57607f821691505b602082108114156110ae576110ad61115d565b5b50919050565b6110bd826111bb565b810181811067ffffffffffffffff821117156110dc576110db61118c565b5b80604052505050565b60006110f082611036565b91507fffffffffffffffffffffffffffffffffffffffffffffffffffffffffffffffff8214156111235761112261112e565b5b600182019050919050565b7f4e487b7100000000000000000000000000000000000000000000000000000000600052601160045260246000fd5b7f4e487b7100000000000000000000000000000000000000000000000000000000600052602260045260246000fd5b7f4e487b7100000000000000000000000000000000000000000000000000000000600052604160045260246000fd5b6000601f19601f8301169050919050565b7f546f446f20646f6573206e6f7420657869737400000000000000000000000000600082015250565b6111fe8161100a565b811461120957600080fd5b50565b61121581611036565b811461122057600080fd5b5056fea2646970667358221220caab7b785b6eaa5df696e4f949c9bd43877af7806ca90b6a2c843053d96dbb0a64736f6c63430008040033",
    "linkReferences": {},
    "deployedLinkReferences": {}
}